{
  "contractName": "KHPIToken",
  "abi": [
    {
      "inputs": [
        {
          "internalType": "string",
          "name": "_initBaseURI",
          "type": "string"
        }
      ],
      "stateMutability": "nonpayable",
      "type": "constructor"
    },
    {
      "anonymous": false,
      "inputs": [
        {
          "indexed": true,
          "internalType": "address",
          "name": "owner",
          "type": "address"
        },
        {
          "indexed": true,
          "internalType": "address",
          "name": "approved",
          "type": "address"
        },
        {
          "indexed": true,
          "internalType": "uint256",
          "name": "tokenId",
          "type": "uint256"
        }
      ],
      "name": "Approval",
      "type": "event"
    },
    {
      "anonymous": false,
      "inputs": [
        {
          "indexed": true,
          "internalType": "address",
          "name": "owner",
          "type": "address"
        },
        {
          "indexed": true,
          "internalType": "address",
          "name": "operator",
          "type": "address"
        },
        {
          "indexed": false,
          "internalType": "bool",
          "name": "approved",
          "type": "bool"
        }
      ],
      "name": "ApprovalForAll",
      "type": "event"
    },
    {
      "anonymous": false,
      "inputs": [
        {
          "indexed": true,
          "internalType": "address",
          "name": "previousOwner",
          "type": "address"
        },
        {
          "indexed": true,
          "internalType": "address",
          "name": "newOwner",
          "type": "address"
        }
      ],
      "name": "OwnershipTransferred",
      "type": "event"
    },
    {
      "anonymous": false,
      "inputs": [
        {
          "indexed": false,
          "internalType": "address",
          "name": "account",
          "type": "address"
        }
      ],
      "name": "Paused",
      "type": "event"
    },
    {
      "anonymous": false,
      "inputs": [
        {
          "indexed": true,
          "internalType": "address",
          "name": "from",
          "type": "address"
        },
        {
          "indexed": true,
          "internalType": "address",
          "name": "to",
          "type": "address"
        },
        {
          "indexed": true,
          "internalType": "uint256",
          "name": "tokenId",
          "type": "uint256"
        }
      ],
      "name": "Transfer",
      "type": "event"
    },
    {
      "anonymous": false,
      "inputs": [
        {
          "indexed": false,
          "internalType": "address",
          "name": "account",
          "type": "address"
        }
      ],
      "name": "Unpaused",
      "type": "event"
    },
    {
      "inputs": [
        {
          "internalType": "address",
          "name": "to",
          "type": "address"
        },
        {
          "internalType": "uint256",
          "name": "tokenId",
          "type": "uint256"
        }
      ],
      "name": "approve",
      "outputs": [],
      "stateMutability": "nonpayable",
      "type": "function"
    },
    {
      "inputs": [
        {
          "internalType": "address",
          "name": "owner",
          "type": "address"
        }
      ],
      "name": "balanceOf",
      "outputs": [
        {
          "internalType": "uint256",
          "name": "",
          "type": "uint256"
        }
      ],
      "stateMutability": "view",
      "type": "function"
    },
    {
      "inputs": [],
      "name": "baseExtension",
      "outputs": [
        {
          "internalType": "string",
          "name": "",
          "type": "string"
        }
      ],
      "stateMutability": "view",
      "type": "function"
    },
    {
      "inputs": [
        {
          "internalType": "uint256",
          "name": "tokenId",
          "type": "uint256"
        }
      ],
      "name": "getApproved",
      "outputs": [
        {
          "internalType": "address",
          "name": "",
          "type": "address"
        }
      ],
      "stateMutability": "view",
      "type": "function"
    },
    {
      "inputs": [
        {
          "internalType": "address",
          "name": "owner",
          "type": "address"
        },
        {
          "internalType": "address",
          "name": "operator",
          "type": "address"
        }
      ],
      "name": "isApprovedForAll",
      "outputs": [
        {
          "internalType": "bool",
          "name": "",
          "type": "bool"
        }
      ],
      "stateMutability": "view",
      "type": "function"
    },
    {
      "inputs": [],
      "name": "maxMintAmount",
      "outputs": [
        {
          "internalType": "uint256",
          "name": "",
          "type": "uint256"
        }
      ],
      "stateMutability": "view",
      "type": "function"
    },
    {
      "inputs": [],
      "name": "maxSupply",
      "outputs": [
        {
          "internalType": "uint256",
          "name": "",
          "type": "uint256"
        }
      ],
      "stateMutability": "view",
      "type": "function"
    },
    {
      "inputs": [],
      "name": "name",
      "outputs": [
        {
          "internalType": "string",
          "name": "",
          "type": "string"
        }
      ],
      "stateMutability": "view",
      "type": "function"
    },
    {
      "inputs": [],
      "name": "owner",
      "outputs": [
        {
          "internalType": "address",
          "name": "",
          "type": "address"
        }
      ],
      "stateMutability": "view",
      "type": "function"
    },
    {
      "inputs": [
        {
          "internalType": "uint256",
          "name": "tokenId",
          "type": "uint256"
        }
      ],
      "name": "ownerOf",
      "outputs": [
        {
          "internalType": "address",
          "name": "",
          "type": "address"
        }
      ],
      "stateMutability": "view",
      "type": "function"
    },
    {
      "inputs": [],
      "name": "paused",
      "outputs": [
        {
          "internalType": "bool",
          "name": "",
          "type": "bool"
        }
      ],
      "stateMutability": "view",
      "type": "function"
    },
    {
      "inputs": [],
      "name": "renounceOwnership",
      "outputs": [],
      "stateMutability": "nonpayable",
      "type": "function"
    },
    {
      "inputs": [
        {
          "internalType": "address",
          "name": "from",
          "type": "address"
        },
        {
          "internalType": "address",
          "name": "to",
          "type": "address"
        },
        {
          "internalType": "uint256",
          "name": "tokenId",
          "type": "uint256"
        }
      ],
      "name": "safeTransferFrom",
      "outputs": [],
      "stateMutability": "nonpayable",
      "type": "function"
    },
    {
      "inputs": [
        {
          "internalType": "address",
          "name": "from",
          "type": "address"
        },
        {
          "internalType": "address",
          "name": "to",
          "type": "address"
        },
        {
          "internalType": "uint256",
          "name": "tokenId",
          "type": "uint256"
        },
        {
          "internalType": "bytes",
          "name": "data",
          "type": "bytes"
        }
      ],
      "name": "safeTransferFrom",
      "outputs": [],
      "stateMutability": "nonpayable",
      "type": "function"
    },
    {
      "inputs": [
        {
          "internalType": "address",
          "name": "operator",
          "type": "address"
        },
        {
          "internalType": "bool",
          "name": "approved",
          "type": "bool"
        }
      ],
      "name": "setApprovalForAll",
      "outputs": [],
      "stateMutability": "nonpayable",
      "type": "function"
    },
    {
      "inputs": [],
      "name": "symbol",
      "outputs": [
        {
          "internalType": "string",
          "name": "",
          "type": "string"
        }
      ],
      "stateMutability": "view",
      "type": "function"
    },
    {
      "inputs": [
        {
          "internalType": "uint256",
          "name": "index",
          "type": "uint256"
        }
      ],
      "name": "tokenByIndex",
      "outputs": [
        {
          "internalType": "uint256",
          "name": "",
          "type": "uint256"
        }
      ],
      "stateMutability": "view",
      "type": "function"
    },
    {
      "inputs": [
        {
          "internalType": "address",
          "name": "owner",
          "type": "address"
        },
        {
          "internalType": "uint256",
          "name": "index",
          "type": "uint256"
        }
      ],
      "name": "tokenOfOwnerByIndex",
      "outputs": [
        {
          "internalType": "uint256",
          "name": "",
          "type": "uint256"
        }
      ],
      "stateMutability": "view",
      "type": "function"
    },
    {
      "inputs": [],
      "name": "totalSupply",
      "outputs": [
        {
          "internalType": "uint256",
          "name": "",
          "type": "uint256"
        }
      ],
      "stateMutability": "view",
      "type": "function"
    },
    {
      "inputs": [
        {
          "internalType": "address",
          "name": "from",
          "type": "address"
        },
        {
          "internalType": "address",
          "name": "to",
          "type": "address"
        },
        {
          "internalType": "uint256",
          "name": "tokenId",
          "type": "uint256"
        }
      ],
      "name": "transferFrom",
      "outputs": [],
      "stateMutability": "nonpayable",
      "type": "function"
    },
    {
      "inputs": [
        {
          "internalType": "address",
          "name": "newOwner",
          "type": "address"
        }
      ],
      "name": "transferOwnership",
      "outputs": [],
      "stateMutability": "nonpayable",
      "type": "function"
    },
    {
      "inputs": [],
      "name": "pause",
      "outputs": [],
      "stateMutability": "nonpayable",
      "type": "function"
    },
    {
      "inputs": [],
      "name": "unpause",
      "outputs": [],
      "stateMutability": "nonpayable",
      "type": "function"
    },
    {
      "inputs": [
        {
          "internalType": "uint256",
          "name": "_mintAmount",
          "type": "uint256"
        }
      ],
      "name": "mint",
      "outputs": [],
      "stateMutability": "nonpayable",
      "type": "function"
    },
    {
      "inputs": [
        {
          "internalType": "uint256",
          "name": "tokenId",
          "type": "uint256"
        }
      ],
      "name": "tokenURI",
      "outputs": [
        {
          "internalType": "string",
          "name": "",
          "type": "string"
        }
      ],
      "stateMutability": "view",
      "type": "function"
    },
    {
      "inputs": [
        {
          "internalType": "uint256",
          "name": "_newmaxMintAmount",
          "type": "uint256"
        }
      ],
      "name": "setmaxMintAmount",
      "outputs": [],
      "stateMutability": "nonpayable",
      "type": "function"
    },
    {
      "inputs": [
        {
          "internalType": "string",
          "name": "_newBaseURI",
          "type": "string"
        }
      ],
      "name": "setBaseURI",
      "outputs": [],
      "stateMutability": "nonpayable",
      "type": "function"
    },
    {
      "inputs": [
        {
          "internalType": "string",
          "name": "_newBaseExtension",
          "type": "string"
        }
      ],
      "name": "setBaseExtension",
      "outputs": [],
      "stateMutability": "nonpayable",
      "type": "function"
    },
    {
      "inputs": [
        {
          "internalType": "bytes4",
          "name": "interfaceId",
          "type": "bytes4"
        }
      ],
      "name": "supportsInterface",
      "outputs": [
        {
          "internalType": "bool",
          "name": "",
          "type": "bool"
        }
      ],
      "stateMutability": "view",
      "type": "function"
    }
  ],
  "bytecode": "0x60c06040526005608090815264173539b7b760d91b60a052600e906200002690826200026d565b50612710600f5560036010553480156200003f57600080fd5b506040516200245c3803806200245c833981016040819052620000629162000339565b6040518060400160405280600981526020016825a42824aa37b5b2b760b91b815250604051806040016040528060048152602001634b48504960e01b8152508160009081620000b291906200026d565b506001620000c182826200026d565b5050600b805460ff1916905550620000d933620000eb565b620000e48162000145565b506200040e565b600b80546001600160a01b03838116610100818102610100600160a81b031985161790945560405193909204169182907f8be0079c531659141344cd1fd0a4f28419497f9722a3daafe3b4186f6b6457e090600090a35050565b6200014f62000161565b600d6200015d82826200026d565b5050565b600b546001600160a01b03610100909104163314620001c65760405162461bcd60e51b815260206004820181905260248201527f4f776e61626c653a2063616c6c6572206973206e6f7420746865206f776e6572604482015260640160405180910390fd5b565b634e487b7160e01b600052604160045260246000fd5b600181811c90821680620001f357607f821691505b6020821081036200021457634e487b7160e01b600052602260045260246000fd5b50919050565b601f8211156200026857600081815260208120601f850160051c81016020861015620002435750805b601f850160051c820191505b8181101562000264578281556001016200024f565b5050505b505050565b81516001600160401b03811115620002895762000289620001c8565b620002a1816200029a8454620001de565b846200021a565b602080601f831160018114620002d95760008415620002c05750858301515b600019600386901b1c1916600185901b17855562000264565b600085815260208120601f198616915b828110156200030a57888601518255948401946001909101908401620002e9565b5085821015620003295787850151600019600388901b60f8161c191681555b5050505050600190811b01905550565b600060208083850312156200034d57600080fd5b82516001600160401b03808211156200036557600080fd5b818501915085601f8301126200037a57600080fd5b8151818111156200038f576200038f620001c8565b604051601f8201601f19908116603f01168101908382118183101715620003ba57620003ba620001c8565b816040528281528886848701011115620003d357600080fd5b600093505b82841015620003f75784840186015181850187015292850192620003d8565b600086848301015280965050505050505092915050565b61203e806200041e6000396000f3fe608060405234801561001057600080fd5b50600436106101cf5760003560e01c806370a0823111610104578063a22cb465116100a2578063d5abeb0111610071578063d5abeb0114610399578063da3ef23f146103a2578063e985e9c5146103b5578063f2fde38b146103f157600080fd5b8063a22cb46514610358578063b88d4fde1461036b578063c66828621461037e578063c87b56dd1461038657600080fd5b80638456cb59116100de5780638456cb591461031f5780638da5cb5b1461032757806395d89b411461033d578063a0712d681461034557600080fd5b806370a08231146102f1578063715018a6146103045780637f00c7a61461030c57600080fd5b80632f745c59116101715780634f6ccce71161014b5780634f6ccce7146102ad57806355f804b3146102c05780635c975abb146102d35780636352211e146102de57600080fd5b80632f745c591461027f5780633f4ba83a1461029257806342842e0e1461029a57600080fd5b8063095ea7b3116101ad578063095ea7b31461023c57806318160ddd14610251578063239c70ae1461026357806323b872dd1461026c57600080fd5b806301ffc9a7146101d457806306fdde03146101fc578063081812fc14610211575b600080fd5b6101e76101e23660046119dc565b610404565b60405190151581526020015b60405180910390f35b610204610415565b6040516101f39190611a49565b61022461021f366004611a5c565b6104a7565b6040516001600160a01b0390911681526020016101f3565b61024f61024a366004611a91565b6104ce565b005b6008545b6040519081526020016101f3565b61025560105481565b61024f61027a366004611abb565b6105e8565b61025561028d366004611a91565b610619565b61024f6106af565b61024f6102a8366004611abb565b6106c1565b6102556102bb366004611a5c565b6106dc565b61024f6102ce366004611b83565b61076f565b600b5460ff166101e7565b6102246102ec366004611a5c565b610787565b6102556102ff366004611bcc565b6107e7565b61024f61086d565b61024f61031a366004611a5c565b61087f565b61024f61088c565b600b5461010090046001600160a01b0316610224565b61020461089c565b61024f610353366004611a5c565b6108ab565b61024f610366366004611be7565b610923565b61024f610379366004611c23565b61092e565b610204610966565b610204610394366004611a5c565b6109f4565b610255600f5481565b61024f6103b0366004611b83565b6109ff565b6101e76103c3366004611c9f565b6001600160a01b03918216600090815260056020908152604080832093909416825291909152205460ff1690565b61024f6103ff366004611bcc565b610a13565b600061040f82610a8c565b92915050565b60606000805461042490611cd2565b80601f016020809104026020016040519081016040528092919081815260200182805461045090611cd2565b801561049d5780601f106104725761010080835404028352916020019161049d565b820191906000526020600020905b81548152906001019060200180831161048057829003601f168201915b5050505050905090565b60006104b282610ab1565b506000908152600460205260409020546001600160a01b031690565b60006104d982610787565b9050806001600160a01b0316836001600160a01b03160361054b5760405162461bcd60e51b815260206004820152602160248201527f4552433732313a20617070726f76616c20746f2063757272656e74206f776e656044820152603960f91b60648201526084015b60405180910390fd5b336001600160a01b0382161480610567575061056781336103c3565b6105d95760405162461bcd60e51b815260206004820152603d60248201527f4552433732313a20617070726f76652063616c6c6572206973206e6f7420746f60448201527f6b656e206f776e6572206f7220617070726f76656420666f7220616c6c0000006064820152608401610542565b6105e38383610b10565b505050565b6105f23382610b7e565b61060e5760405162461bcd60e51b815260040161054290611d0c565b6105e3838383610bfd565b6000610624836107e7565b82106106865760405162461bcd60e51b815260206004820152602b60248201527f455243373231456e756d657261626c653a206f776e657220696e646578206f7560448201526a74206f6620626f756e647360a81b6064820152608401610542565b506001600160a01b03919091166000908152600660209081526040808320938352929052205490565b6106b7610d6e565b6106bf610dce565b565b6105e38383836040518060200160405280600081525061092e565b60006106e760085490565b821061074a5760405162461bcd60e51b815260206004820152602c60248201527f455243373231456e756d657261626c653a20676c6f62616c20696e646578206f60448201526b7574206f6620626f756e647360a01b6064820152608401610542565b6008828154811061075d5761075d611d59565b90600052602060002001549050919050565b610777610d6e565b600d6107838282611dbd565b5050565b6000818152600260205260408120546001600160a01b03168061040f5760405162461bcd60e51b8152602060048201526018602482015277115490cdcc8c4e881a5b9d985b1a59081d1bdad95b88125160421b6044820152606401610542565b60006001600160a01b0382166108515760405162461bcd60e51b815260206004820152602960248201527f4552433732313a2061646472657373207a65726f206973206e6f7420612076616044820152683634b21037bbb732b960b91b6064820152608401610542565b506001600160a01b031660009081526003602052604090205490565b610875610d6e565b6106bf6000610e20565b610887610d6e565b601055565b610894610d6e565b6106bf610e7a565b60606001805461042490611cd2565b6108b3610d6e565b60006108be60085490565b9050600082116108cd57600080fd5b6010548211156108dc57600080fd5b600f546108e98383611e93565b11156108f457600080fd5b60015b8281116105e3576109113361090c8385611e93565b610eb7565b8061091b81611ea6565b9150506108f7565b610783338383610ed1565b6109383383610b7e565b6109545760405162461bcd60e51b815260040161054290611d0c565b61096084848484610f9f565b50505050565b600e805461097390611cd2565b80601f016020809104026020016040519081016040528092919081815260200182805461099f90611cd2565b80156109ec5780601f106109c1576101008083540402835291602001916109ec565b820191906000526020600020905b8154815290600101906020018083116109cf57829003601f168201915b505050505081565b606061040f82610fd2565b610a07610d6e565b600e6107838282611dbd565b610a1b610d6e565b6001600160a01b038116610a805760405162461bcd60e51b815260206004820152602660248201527f4f776e61626c653a206e6577206f776e657220697320746865207a65726f206160448201526564647265737360d01b6064820152608401610542565b610a8981610e20565b50565b60006001600160e01b0319821663780e9d6360e01b148061040f575061040f826110cd565b6000818152600260205260409020546001600160a01b0316610a895760405162461bcd60e51b8152602060048201526018602482015277115490cdcc8c4e881a5b9d985b1a59081d1bdad95b88125160421b6044820152606401610542565b600081815260046020526040902080546001600160a01b0319166001600160a01b0384169081179091558190610b4582610787565b6001600160a01b03167f8c5be1e5ebec7d5bd14f71427d1e84f3dd0314c0f7b2291e5b200ac8c7c3b92560405160405180910390a45050565b600080610b8a83610787565b9050806001600160a01b0316846001600160a01b03161480610bd157506001600160a01b0380821660009081526005602090815260408083209388168352929052205460ff165b80610bf55750836001600160a01b0316610bea846104a7565b6001600160a01b0316145b949350505050565b826001600160a01b0316610c1082610787565b6001600160a01b031614610c365760405162461bcd60e51b815260040161054290611ebf565b6001600160a01b038216610c985760405162461bcd60e51b8152602060048201526024808201527f4552433732313a207472616e7366657220746f20746865207a65726f206164646044820152637265737360e01b6064820152608401610542565b610ca5838383600161111d565b826001600160a01b0316610cb882610787565b6001600160a01b031614610cde5760405162461bcd60e51b815260040161054290611ebf565b600081815260046020908152604080832080546001600160a01b03199081169091556001600160a01b0387811680865260038552838620805460001901905590871680865283862080546001019055868652600290945282852080549092168417909155905184937fddf252ad1be2c89b69c2b068fc378daa952ba7f163c4a11628f55a4df523b3ef91a4505050565b600b546001600160a01b036101009091041633146106bf5760405162461bcd60e51b815260206004820181905260248201527f4f776e61626c653a2063616c6c6572206973206e6f7420746865206f776e65726044820152606401610542565b610dd6611131565b600b805460ff191690557f5db9ee0a495bf2e6ff9c91a7834c1ba4fdd244a5e8aa4e537bd38aeae4b073aa335b6040516001600160a01b03909116815260200160405180910390a1565b600b80546001600160a01b03838116610100818102610100600160a81b031985161790945560405193909204169182907f8be0079c531659141344cd1fd0a4f28419497f9722a3daafe3b4186f6b6457e090600090a35050565b610e8261117a565b600b805460ff191660011790557f62e78cea01bee320cd4e420270b5ea74000d11b0c9f74754ebdbfc544b05a258610e033390565b6107838282604051806020016040528060008152506111c0565b816001600160a01b0316836001600160a01b031603610f325760405162461bcd60e51b815260206004820152601960248201527f4552433732313a20617070726f766520746f2063616c6c6572000000000000006044820152606401610542565b6001600160a01b03838116600081815260056020908152604080832094871680845294825291829020805460ff191686151590811790915591519182527f17307eab39ab6107e8899845ad3d59bd9653f200f220920489ca2b5937696c31910160405180910390a3505050565b610faa848484610bfd565b610fb6848484846111f3565b6109605760405162461bcd60e51b815260040161054290611f04565b6060610fdd82610ab1565b6000828152600a602052604081208054610ff690611cd2565b80601f016020809104026020016040519081016040528092919081815260200182805461102290611cd2565b801561106f5780601f106110445761010080835404028352916020019161106f565b820191906000526020600020905b81548152906001019060200180831161105257829003601f168201915b5050505050905060006110806112f4565b90508051600003611092575092915050565b8151156110c45780826040516020016110ac929190611f56565b60405160208183030381529060405292505050919050565b610bf584611303565b60006001600160e01b031982166380ac58cd60e01b14806110fe57506001600160e01b03198216635b5e139f60e01b145b8061040f57506301ffc9a760e01b6001600160e01b031983161461040f565b61112561117a565b6109608484848461136a565b600b5460ff166106bf5760405162461bcd60e51b815260206004820152601460248201527314185d5cd8589b194e881b9bdd081c185d5cd95960621b6044820152606401610542565b600b5460ff16156106bf5760405162461bcd60e51b815260206004820152601060248201526f14185d5cd8589b194e881c185d5cd95960821b6044820152606401610542565b6111ca83836114aa565b6111d760008484846111f3565b6105e35760405162461bcd60e51b815260040161054290611f04565b60006001600160a01b0384163b156112e957604051630a85bd0160e11b81526001600160a01b0385169063150b7a0290611237903390899088908890600401611f85565b6020604051808303816000875af1925050508015611272575060408051601f3d908101601f1916820190925261126f91810190611fc2565b60015b6112cf573d8080156112a0576040519150601f19603f3d011682016040523d82523d6000602084013e6112a5565b606091505b5080516000036112c75760405162461bcd60e51b815260040161054290611f04565b805181602001fd5b6001600160e01b031916630a85bd0160e11b149050610bf5565b506001949350505050565b6060600d805461042490611cd2565b606061130e82610ab1565b60006113186112f4565b905060008151116113385760405180602001604052806000815250611363565b8061134284611643565b604051602001611353929190611f56565b6040516020818303038152906040525b9392505050565b611376848484846116d6565b60018111156113e55760405162461bcd60e51b815260206004820152603560248201527f455243373231456e756d657261626c653a20636f6e7365637574697665207472604482015274185b9cd9995c9cc81b9bdd081cdd5c1c1bdc9d1959605a1b6064820152608401610542565b816001600160a01b0385166114415761143c81600880546000838152600960205260408120829055600182018355919091527ff3f7a9fe364faab93b216da50a3214154f22a0a2b415b23a84c8169e8b636ee30155565b611464565b836001600160a01b0316856001600160a01b03161461146457611464858261175e565b6001600160a01b0384166114805761147b816117fb565b6114a3565b846001600160a01b0316846001600160a01b0316146114a3576114a384826118aa565b5050505050565b6001600160a01b0382166115005760405162461bcd60e51b815260206004820181905260248201527f4552433732313a206d696e7420746f20746865207a65726f20616464726573736044820152606401610542565b6000818152600260205260409020546001600160a01b0316156115655760405162461bcd60e51b815260206004820152601c60248201527f4552433732313a20746f6b656e20616c7265616479206d696e746564000000006044820152606401610542565b61157360008383600161111d565b6000818152600260205260409020546001600160a01b0316156115d85760405162461bcd60e51b815260206004820152601c60248201527f4552433732313a20746f6b656e20616c7265616479206d696e746564000000006044820152606401610542565b6001600160a01b038216600081815260036020908152604080832080546001019055848352600290915280822080546001600160a01b0319168417905551839291907fddf252ad1be2c89b69c2b068fc378daa952ba7f163c4a11628f55a4df523b3ef908290a45050565b60606000611650836118ee565b600101905060008167ffffffffffffffff81111561167057611670611af7565b6040519080825280601f01601f19166020018201604052801561169a576020820181803683370190505b5090508181016020015b600019016f181899199a1a9b1b9c1cb0b131b232b360811b600a86061a8153600a85049450846116a457509392505050565b6001811115610960576001600160a01b0384161561171c576001600160a01b03841660009081526003602052604081208054839290611716908490611fdf565b90915550505b6001600160a01b03831615610960576001600160a01b03831660009081526003602052604081208054839290611753908490611e93565b909155505050505050565b6000600161176b846107e7565b6117759190611fdf565b6000838152600760205260409020549091508082146117c8576001600160a01b03841660009081526006602090815260408083208584528252808320548484528184208190558352600790915290208190555b5060009182526007602090815260408084208490556001600160a01b039094168352600681528383209183525290812055565b60085460009061180d90600190611fdf565b6000838152600960205260408120546008805493945090928490811061183557611835611d59565b90600052602060002001549050806008838154811061185657611856611d59565b600091825260208083209091019290925582815260099091526040808220849055858252812055600880548061188e5761188e611ff2565b6001900381819060005260206000200160009055905550505050565b60006118b5836107e7565b6001600160a01b039093166000908152600660209081526040808320868452825280832085905593825260079052919091209190915550565b60008072184f03e93ff9f4daa797ed6e38ed64bf6a1f0160401b831061192d5772184f03e93ff9f4daa797ed6e38ed64bf6a1f0160401b830492506040015b6d04ee2d6d415b85acef81000000008310611959576d04ee2d6d415b85acef8100000000830492506020015b662386f26fc10000831061197757662386f26fc10000830492506010015b6305f5e100831061198f576305f5e100830492506008015b61271083106119a357612710830492506004015b606483106119b5576064830492506002015b600a831061040f5760010192915050565b6001600160e01b031981168114610a8957600080fd5b6000602082840312156119ee57600080fd5b8135611363816119c6565b60005b83811015611a145781810151838201526020016119fc565b50506000910152565b60008151808452611a358160208601602086016119f9565b601f01601f19169290920160200192915050565b6020815260006113636020830184611a1d565b600060208284031215611a6e57600080fd5b5035919050565b80356001600160a01b0381168114611a8c57600080fd5b919050565b60008060408385031215611aa457600080fd5b611aad83611a75565b946020939093013593505050565b600080600060608486031215611ad057600080fd5b611ad984611a75565b9250611ae760208501611a75565b9150604084013590509250925092565b634e487b7160e01b600052604160045260246000fd5b600067ffffffffffffffff80841115611b2857611b28611af7565b604051601f8501601f19908116603f01168101908282118183101715611b5057611b50611af7565b81604052809350858152868686011115611b6957600080fd5b858560208301376000602087830101525050509392505050565b600060208284031215611b9557600080fd5b813567ffffffffffffffff811115611bac57600080fd5b8201601f81018413611bbd57600080fd5b610bf584823560208401611b0d565b600060208284031215611bde57600080fd5b61136382611a75565b60008060408385031215611bfa57600080fd5b611c0383611a75565b915060208301358015158114611c1857600080fd5b809150509250929050565b60008060008060808587031215611c3957600080fd5b611c4285611a75565b9350611c5060208601611a75565b925060408501359150606085013567ffffffffffffffff811115611c7357600080fd5b8501601f81018713611c8457600080fd5b611c9387823560208401611b0d565b91505092959194509250565b60008060408385031215611cb257600080fd5b611cbb83611a75565b9150611cc960208401611a75565b90509250929050565b600181811c90821680611ce657607f821691505b602082108103611d0657634e487b7160e01b600052602260045260246000fd5b50919050565b6020808252602d908201527f4552433732313a2063616c6c6572206973206e6f7420746f6b656e206f776e6560408201526c1c881bdc88185c1c1c9bdd9959609a1b606082015260800190565b634e487b7160e01b600052603260045260246000fd5b601f8211156105e357600081815260208120601f850160051c81016020861015611d965750805b601f850160051c820191505b81811015611db557828155600101611da2565b505050505050565b815167ffffffffffffffff811115611dd757611dd7611af7565b611deb81611de58454611cd2565b84611d6f565b602080601f831160018114611e205760008415611e085750858301515b600019600386901b1c1916600185901b178555611db5565b600085815260208120601f198616915b82811015611e4f57888601518255948401946001909101908401611e30565b5085821015611e6d5787850151600019600388901b60f8161c191681555b5050505050600190811b01905550565b634e487b7160e01b600052601160045260246000fd5b8082018082111561040f5761040f611e7d565b600060018201611eb857611eb8611e7d565b5060010190565b60208082526025908201527f4552433732313a207472616e736665722066726f6d20696e636f72726563742060408201526437bbb732b960d91b606082015260800190565b60208082526032908201527f4552433732313a207472616e7366657220746f206e6f6e20455243373231526560408201527131b2b4bb32b91034b6b83632b6b2b73a32b960711b606082015260800190565b60008351611f688184602088016119f9565b835190830190611f7c8183602088016119f9565b01949350505050565b6001600160a01b0385811682528416602082015260408101839052608060608201819052600090611fb890830184611a1d565b9695505050505050565b600060208284031215611fd457600080fd5b8151611363816119c6565b8181038181111561040f5761040f611e7d565b634e487b7160e01b600052603160045260246000fdfea2646970667358221220907d0e4ef63d5c7f837dfec3b8301c04b70d719e4532fee46c3df4e7c90af18964736f6c63430008110033",
  "immutableReferences": {},
  "source": "// SPDX-License-Identifier: MIT\r\npragma solidity ^0.8.9;\r\n\r\nimport \"@openzeppelin/contracts/token/ERC721/ERC721.sol\";\r\nimport \"@openzeppelin/contracts/token/ERC721/extensions/ERC721Enumerable.sol\";\r\nimport \"@openzeppelin/contracts/token/ERC721/extensions/ERC721URIStorage.sol\";\r\nimport \"@openzeppelin/contracts/security/Pausable.sol\";\r\nimport \"@openzeppelin/contracts/access/Ownable.sol\";\r\nimport \"@openzeppelin/contracts/utils/Counters.sol\";\r\n\r\ncontract KHPIToken is ERC721, ERC721Enumerable, ERC721URIStorage, Pausable, Ownable {\r\n    using Counters for Counters.Counter;\r\n\r\n    Counters.Counter private _tokenIdCounter;\r\n\r\n    string baseURI;\r\n    string public baseExtension = \".json\";\r\n    uint256 public maxSupply = 10000;\r\n    uint256 public maxMintAmount = 3;\r\n\r\n    constructor(string memory _initBaseURI) ERC721(\"KHPIToken\", \"KHPI\") {\r\n        setBaseURI(_initBaseURI);\r\n    }\r\n\r\n    function _baseURI() internal view virtual override returns (string memory) {\r\n        return baseURI;\r\n    }\r\n\r\n    function pause() public onlyOwner {\r\n        _pause();\r\n    }\r\n\r\n    function unpause() public onlyOwner {\r\n        _unpause();\r\n    }\r\n\r\n    function mint(uint256 _mintAmount) public onlyOwner {\r\n        uint256 supply = totalSupply();\r\n        require(_mintAmount > 0);\r\n        require(_mintAmount <= maxMintAmount);\r\n        require(supply + _mintAmount <= maxSupply);\r\n\r\n        for (uint256 i = 1; i <= _mintAmount; i++) {\r\n        _safeMint(msg.sender, supply + i);\r\n        }\r\n    }\r\n\r\n    function _beforeTokenTransfer(address from, address to, uint256 tokenId, uint256 batchSize)\r\n        internal\r\n        whenNotPaused\r\n        override(ERC721, ERC721Enumerable)\r\n    {\r\n        super._beforeTokenTransfer(from, to, tokenId, batchSize);\r\n    }\r\n\r\n    function _burn(uint256 tokenId) internal override(ERC721, ERC721URIStorage) {\r\n        super._burn(tokenId);\r\n    }\r\n\r\n    function tokenURI(uint256 tokenId)\r\n        public\r\n        view\r\n        override(ERC721, ERC721URIStorage)\r\n        returns (string memory)\r\n    {\r\n        return super.tokenURI(tokenId);\r\n    }\r\n\r\n    function setmaxMintAmount(uint256 _newmaxMintAmount) public onlyOwner {\r\n        maxMintAmount = _newmaxMintAmount;\r\n    }\r\n\r\n    function setBaseURI(string memory _newBaseURI) public onlyOwner {\r\n        baseURI = _newBaseURI;\r\n    }\r\n\r\n    function setBaseExtension(string memory _newBaseExtension) public onlyOwner {\r\n        baseExtension = _newBaseExtension;\r\n    }\r\n\r\n    function supportsInterface(bytes4 interfaceId)\r\n        public\r\n        view\r\n        override(ERC721, ERC721Enumerable)\r\n        returns (bool)\r\n    {\r\n        return super.supportsInterface(interfaceId);\r\n    }\r\n}\r\n",
  "sourcePath": "D:\\learn\\2 course\\New folder\\contracts\\KHPIToken.sol",
  "compiler": {
    "name": "solc",
    "version": "0.8.17+commit.8df45f5f.Emscripten.clang"
  },
  "schemaVersion": "3.4.4",
  "updatedAt": "2022-12-04T15:07:22.299Z",
  "devdoc": {
    "kind": "dev",
    "methods": {
      "approve(address,uint256)": {
        "details": "See {IERC721-approve}."
      },
      "balanceOf(address)": {
        "details": "See {IERC721-balanceOf}."
      },
      "getApproved(uint256)": {
        "details": "See {IERC721-getApproved}."
      },
      "isApprovedForAll(address,address)": {
        "details": "See {IERC721-isApprovedForAll}."
      },
      "name()": {
        "details": "See {IERC721Metadata-name}."
      },
      "owner()": {
        "details": "Returns the address of the current owner."
      },
      "ownerOf(uint256)": {
        "details": "See {IERC721-ownerOf}."
      },
      "paused()": {
        "details": "Returns true if the contract is paused, and false otherwise."
      },
      "renounceOwnership()": {
        "details": "Leaves the contract without owner. It will not be possible to call `onlyOwner` functions anymore. Can only be called by the current owner. NOTE: Renouncing ownership will leave the contract without an owner, thereby removing any functionality that is only available to the owner."
      },
      "safeTransferFrom(address,address,uint256)": {
        "details": "See {IERC721-safeTransferFrom}."
      },
      "safeTransferFrom(address,address,uint256,bytes)": {
        "details": "See {IERC721-safeTransferFrom}."
      },
      "setApprovalForAll(address,bool)": {
        "details": "See {IERC721-setApprovalForAll}."
      },
      "symbol()": {
        "details": "See {IERC721Metadata-symbol}."
      },
      "tokenByIndex(uint256)": {
        "details": "See {IERC721Enumerable-tokenByIndex}."
      },
      "tokenOfOwnerByIndex(address,uint256)": {
        "details": "See {IERC721Enumerable-tokenOfOwnerByIndex}."
      },
      "totalSupply()": {
        "details": "See {IERC721Enumerable-totalSupply}."
      },
      "transferFrom(address,address,uint256)": {
        "details": "See {IERC721-transferFrom}."
      },
      "transferOwnership(address)": {
        "details": "Transfers ownership of the contract to a new account (`newOwner`). Can only be called by the current owner."
      }
    },
    "version": 1
  },
  "userdoc": {
    "kind": "user",
    "methods": {},
    "version": 1
  }
}